{
  "contractName": "Voting",
  "abi": [
    {
      "anonymous": false,
      "inputs": [
        {
          "indexed": true,
          "internalType": "uint256",
          "name": "option",
          "type": "uint256"
        }
      ],
      "name": "OptionAdded",
      "type": "event"
    },
    {
      "anonymous": false,
      "inputs": [
        {
          "indexed": true,
          "internalType": "address",
          "name": "voter",
          "type": "address"
        },
        {
          "indexed": true,
          "internalType": "uint256",
          "name": "option",
          "type": "uint256"
        }
      ],
      "name": "Voted",
      "type": "event"
    },
    {
      "inputs": [
        {
          "internalType": "uint256",
          "name": "",
          "type": "uint256"
        }
      ],
      "name": "options",
      "outputs": [
        {
          "internalType": "uint256",
          "name": "",
          "type": "uint256"
        }
      ],
      "stateMutability": "view",
      "type": "function"
    },
    {
      "inputs": [
        {
          "internalType": "uint256",
          "name": "",
          "type": "uint256"
        }
      ],
      "name": "voteCount",
      "outputs": [
        {
          "internalType": "uint256",
          "name": "",
          "type": "uint256"
        }
      ],
      "stateMutability": "view",
      "type": "function"
    },
    {
      "inputs": [
        {
          "internalType": "address",
          "name": "",
          "type": "address"
        }
      ],
      "name": "voters",
      "outputs": [
        {
          "internalType": "bool",
          "name": "hasVoted",
          "type": "bool"
        },
        {
          "internalType": "uint256",
          "name": "votedOption",
          "type": "uint256"
        }
      ],
      "stateMutability": "view",
      "type": "function"
    },
    {
      "inputs": [
        {
          "internalType": "uint256",
          "name": "_option",
          "type": "uint256"
        }
      ],
      "name": "addOption",
      "outputs": [],
      "stateMutability": "nonpayable",
      "type": "function"
    },
    {
      "inputs": [],
      "name": "getNumberOfOptions",
      "outputs": [
        {
          "internalType": "uint256",
          "name": "",
          "type": "uint256"
        }
      ],
      "stateMutability": "view",
      "type": "function"
    },
    {
      "inputs": [
        {
          "internalType": "uint256",
          "name": "_option",
          "type": "uint256"
        }
      ],
      "name": "vote",
      "outputs": [],
      "stateMutability": "nonpayable",
      "type": "function"
    },
    {
      "inputs": [
        {
          "internalType": "uint256",
          "name": "_option",
          "type": "uint256"
        }
      ],
      "name": "optionExists",
      "outputs": [
        {
          "internalType": "bool",
          "name": "",
          "type": "bool"
        }
      ],
      "stateMutability": "view",
      "type": "function"
    },
    {
      "inputs": [
        {
          "internalType": "uint256",
          "name": "_option",
          "type": "uint256"
        }
      ],
      "name": "getVoteCount",
      "outputs": [
        {
          "internalType": "uint256",
          "name": "",
          "type": "uint256"
        }
      ],
      "stateMutability": "view",
      "type": "function"
    },
    {
      "inputs": [
        {
          "internalType": "address",
          "name": "_voter",
          "type": "address"
        }
      ],
      "name": "getVotedOption",
      "outputs": [
        {
          "internalType": "uint256",
          "name": "",
          "type": "uint256"
        }
      ],
      "stateMutability": "view",
      "type": "function"
    },
    {
      "inputs": [],
      "name": "owner",
      "outputs": [
        {
          "internalType": "address",
          "name": "",
          "type": "address"
        }
      ],
      "stateMutability": "view",
      "type": "function"
    }
  ],
  "bytecode": "0x608060405234801561000f575f80fd5b50610ae08061001d5f395ff3fe608060405234801561000f575f80fd5b506004361061009c575f3560e01c80638125e7f0116100645780638125e7f01461017c5780638da5cb5b146101985780639a9c1bbe146101b6578063a3ec138d146101d4578063b2c2f2e8146102055761009c565b80630121b93f146100a0578063049ea4cd146100bc578063150751f4146100ec578063409e22051461011c5780634fc8a20d1461014c575b5f80fd5b6100ba60048036038101906100b591906106d9565b610235565b005b6100d660048036038101906100d191906106d9565b610412565b6040516100e3919061071e565b60405180910390f35b61010660048036038101906101019190610791565b61046f565b60405161011391906107cb565b60405180910390f35b610136600480360381019061013191906106d9565b6104b8565b60405161014391906107cb565b60405180910390f35b610166600480360381019061016191906106d9565b6104d8565b60405161017391906107cb565b60405180910390f35b610196600480360381019061019191906106d9565b6104ec565b005b6101a0610600565b6040516101ad91906107f3565b60405180910390f35b6101be610607565b6040516101cb91906107cb565b60405180910390f35b6101ee60048036038101906101e99190610791565b610613565b6040516101fc92919061080c565b60405180910390f35b61021f600480360381019061021a91906106d9565b61063f565b60405161022c91906107cb565b60405180910390f35b60015f3373ffffffffffffffffffffffffffffffffffffffff1673ffffffffffffffffffffffffffffffffffffffff1681526020019081526020015f205f015f9054906101000a900460ff16156102c1576040517f08c379a00000000000000000000000000000000000000000000000000000000081526004016102b89061088d565b60405180910390fd5b806102cb81610412565b61030a576040517f08c379a0000000000000000000000000000000000000000000000000000000008152600401610301906108f5565b60405180910390fd5b6001805f3373ffffffffffffffffffffffffffffffffffffffff1673ffffffffffffffffffffffffffffffffffffffff1681526020019081526020015f205f015f6101000a81548160ff0219169083151502179055508160015f3373ffffffffffffffffffffffffffffffffffffffff1673ffffffffffffffffffffffffffffffffffffffff1681526020019081526020015f20600101819055505f808381526020019081526020015f205f8154809291906103c590610940565b9190505550813373ffffffffffffffffffffffffffffffffffffffff167f4d99b957a2bc29a30ebd96a7be8e68fe50a3c701db28a91436490b7d53870ca460405160405180910390a35050565b5f805f90505b60028054905081101561046557826002828154811061043a57610439610987565b5b905f5260205f2001540361045257600191505061046a565b808061045d90610940565b915050610418565b505f90505b919050565b5f60015f8373ffffffffffffffffffffffffffffffffffffffff1673ffffffffffffffffffffffffffffffffffffffff1681526020019081526020015f20600101549050919050565b600281815481106104c7575f80fd5b905f5260205f20015f915090505481565b5f602052805f5260405f205f915090505481565b6104f4610600565b73ffffffffffffffffffffffffffffffffffffffff163373ffffffffffffffffffffffffffffffffffffffff1614610561576040517f08c379a000000000000000000000000000000000000000000000000000000000815260040161055890610a24565b60405180910390fd5b61056a81610412565b156105aa576040517f08c379a00000000000000000000000000000000000000000000000000000000081526004016105a190610a8c565b60405180910390fd5b600281908060018154018082558091505060019003905f5260205f20015f9091909190915055807faf98ee484f6ae6c1497bbd5eb7ddff3909aa2ef3f0be39b00b29431871a249dc60405160405180910390a250565b5f33905090565b5f600280549050905090565b6001602052805f5260405f205f91509050805f015f9054906101000a900460ff16908060010154905082565b5f8161064a81610412565b610689576040517f08c379a0000000000000000000000000000000000000000000000000000000008152600401610680906108f5565b60405180910390fd5b5f808481526020019081526020015f2054915050919050565b5f80fd5b5f819050919050565b6106b8816106a6565b81146106c2575f80fd5b50565b5f813590506106d3816106af565b92915050565b5f602082840312156106ee576106ed6106a2565b5b5f6106fb848285016106c5565b91505092915050565b5f8115159050919050565b61071881610704565b82525050565b5f6020820190506107315f83018461070f565b92915050565b5f73ffffffffffffffffffffffffffffffffffffffff82169050919050565b5f61076082610737565b9050919050565b61077081610756565b811461077a575f80fd5b50565b5f8135905061078b81610767565b92915050565b5f602082840312156107a6576107a56106a2565b5b5f6107b38482850161077d565b91505092915050565b6107c5816106a6565b82525050565b5f6020820190506107de5f8301846107bc565b92915050565b6107ed81610756565b82525050565b5f6020820190506108065f8301846107e4565b92915050565b5f60408201905061081f5f83018561070f565b61082c60208301846107bc565b9392505050565b5f82825260208201905092915050565b7f596f75206861766520616c726561647920766f746564000000000000000000005f82015250565b5f610877601683610833565b915061088282610843565b602082019050919050565b5f6020820190508181035f8301526108a48161086b565b9050919050565b7f496e76616c6964206f7074696f6e0000000000000000000000000000000000005f82015250565b5f6108df600e83610833565b91506108ea826108ab565b602082019050919050565b5f6020820190508181035f83015261090c816108d3565b9050919050565b7f4e487b71000000000000000000000000000000000000000000000000000000005f52601160045260245ffd5b5f61094a826106a6565b91507fffffffffffffffffffffffffffffffffffffffffffffffffffffffffffffffff820361097c5761097b610913565b5b600182019050919050565b7f4e487b71000000000000000000000000000000000000000000000000000000005f52603260045260245ffd5b7f4f6e6c7920746865206f776e65722063616e2063616c6c20746869732066756e5f8201527f6374696f6e000000000000000000000000000000000000000000000000000000602082015250565b5f610a0e602583610833565b9150610a19826109b4565b604082019050919050565b5f6020820190508181035f830152610a3b81610a02565b9050919050565b7f4f7074696f6e20616c72656164792065786973747300000000000000000000005f82015250565b5f610a76601583610833565b9150610a8182610a42565b602082019050919050565b5f6020820190508181035f830152610aa381610a6a565b905091905056fea2646970667358221220a7e8cf36f1d8c71f84779aabc92ae8fb055c66dae349553cd77720ba82c83e5664736f6c63430008150033",
  "immutableReferences": {},
  "source": "// SPDX-License-Identifier: MIT\r\npragma solidity ^0.8.0;\r\n\r\ncontract Voting {\r\n    // Structure to represent a voter\r\n    struct Voter {\r\n        bool hasVoted;\r\n        uint256 votedOption;\r\n    }\r\n\r\n    // Mapping to store the vote count for each option\r\n    mapping(uint256 => uint256) public voteCount;\r\n\r\n    // Mapping to store the information of each voter\r\n    mapping(address => Voter) public voters;\r\n\r\n    // Array to store the available voting options\r\n    uint256[] public options;\r\n\r\n    // Event emitted when a vote is cast\r\n    event Voted(address indexed voter, uint256 indexed option);\r\n\r\n    // Event emitted when a new voting option is added\r\n    event OptionAdded(uint256 indexed option);\r\n\r\n    // Modifier to check if the sender has not voted yet\r\n    modifier hasNotVoted() {\r\n        require(!voters[msg.sender].hasVoted, \"You have already voted\");\r\n        _;\r\n    }\r\n\r\n    // Modifier to check if the option is valid\r\n    modifier isValidOption(uint256 _option) {\r\n        require(optionExists(_option), \"Invalid option\");\r\n        _;\r\n    }\r\n\r\n    // Modifier to check if the sender is the owner of the contract\r\n    modifier onlyOwner() {\r\n        require(msg.sender == owner(), \"Only the owner can call this function\");\r\n        _;\r\n    }\r\n\r\n    // Function to add a new voting option (only owner)\r\n    function addOption(uint256 _option) external onlyOwner {\r\n        require(!optionExists(_option), \"Option already exists\");\r\n        options.push(_option);\r\n        emit OptionAdded(_option);\r\n    }\r\n\r\n    // Function to get the total number of voting options\r\n    function getNumberOfOptions() external view returns (uint256) {\r\n        return options.length;\r\n    }\r\n\r\n    // Function to allow a user to vote for an option\r\n    function vote(uint256 _option) external hasNotVoted isValidOption(_option) {\r\n        voters[msg.sender].hasVoted = true;\r\n        voters[msg.sender].votedOption = _option;\r\n        voteCount[_option]++;\r\n        emit Voted(msg.sender, _option);\r\n    }\r\n\r\n    // Function to check if a voting option exists\r\n    function optionExists(uint256 _option) public view returns (bool) {\r\n        for (uint256 i = 0; i < options.length; i++) {\r\n            if (options[i] == _option) {\r\n                return true;\r\n            }\r\n        }\r\n        return false;\r\n    }\r\n\r\n    // Function to get the vote count for a specific option\r\n    function getVoteCount(uint256 _option) external view isValidOption(_option) returns (uint256) {\r\n        return voteCount[_option];\r\n    }\r\n\r\n    // Function to get the option voted by a specific user\r\n    function getVotedOption(address _voter) external view returns (uint256) {\r\n        return voters[_voter].votedOption;\r\n    }\r\n\r\n    // Function to get the address of the owner\r\n    function owner() public view returns (address) {\r\n        return msg.sender;\r\n    }\r\n}",
  "sourcePath": "E:\\Study\\University\\HK1_Nam4_2023-2024\\BlockChain_UngDung\\Lab03\\THDTVoting\\contracts\\Voting.sol",
  "compiler": {
    "name": "solc",
    "version": "0.8.21+commit.d9974bed.Emscripten.clang"
  },
  "schemaVersion": "3.4.16",
  "updatedAt": "2023-12-25T10:55:37.678Z",
  "devdoc": {
    "kind": "dev",
    "methods": {},
    "version": 1
  },
  "userdoc": {
    "kind": "user",
    "methods": {},
    "version": 1
  }
}